{
  "contractName": "Proposal",
  "abi": [
    {
      "inputs": [],
      "stateMutability": "nonpayable",
      "type": "constructor"
    },
    {
      "inputs": [
        {
          "internalType": "address",
          "name": "owner",
          "type": "address"
        }
      ],
      "name": "OwnableInvalidOwner",
      "type": "error"
    },
    {
      "inputs": [
        {
          "internalType": "address",
          "name": "account",
          "type": "address"
        }
      ],
      "name": "OwnableUnauthorizedAccount",
      "type": "error"
    },
    {
      "anonymous": false,
      "inputs": [
        {
          "indexed": true,
          "internalType": "address",
          "name": "previousOwner",
          "type": "address"
        },
        {
          "indexed": true,
          "internalType": "address",
          "name": "newOwner",
          "type": "address"
        }
      ],
      "name": "OwnershipTransferred",
      "type": "event"
    },
    {
      "inputs": [],
      "name": "owner",
      "outputs": [
        {
          "internalType": "address",
          "name": "",
          "type": "address"
        }
      ],
      "stateMutability": "view",
      "type": "function"
    },
    {
      "inputs": [
        {
          "internalType": "uint256",
          "name": "",
          "type": "uint256"
        }
      ],
      "name": "proposals",
      "outputs": [
        {
          "internalType": "string",
          "name": "name",
          "type": "string"
        },
        {
          "internalType": "bool",
          "name": "isOpen",
          "type": "bool"
        }
      ],
      "stateMutability": "view",
      "type": "function"
    },
    {
      "inputs": [],
      "name": "renounceOwnership",
      "outputs": [],
      "stateMutability": "nonpayable",
      "type": "function"
    },
    {
      "inputs": [
        {
          "internalType": "address",
          "name": "newOwner",
          "type": "address"
        }
      ],
      "name": "transferOwnership",
      "outputs": [],
      "stateMutability": "nonpayable",
      "type": "function"
    },
    {
      "inputs": [
        {
          "internalType": "string",
          "name": "name",
          "type": "string"
        },
        {
          "internalType": "string[]",
          "name": "options",
          "type": "string[]"
        }
      ],
      "name": "createProposal",
      "outputs": [
        {
          "internalType": "uint256",
          "name": "index",
          "type": "uint256"
        }
      ],
      "stateMutability": "nonpayable",
      "type": "function"
    },
    {
      "inputs": [
        {
          "internalType": "uint256",
          "name": "proposalId",
          "type": "uint256"
        }
      ],
      "name": "closeProposal",
      "outputs": [],
      "stateMutability": "nonpayable",
      "type": "function"
    },
    {
      "inputs": [
        {
          "internalType": "uint256",
          "name": "proposalId",
          "type": "uint256"
        },
        {
          "internalType": "uint256",
          "name": "optionId",
          "type": "uint256"
        }
      ],
      "name": "castVote",
      "outputs": [],
      "stateMutability": "nonpayable",
      "type": "function"
    }
  ],
  "bytecode": "0x608060405234801561000f575f80fd5b50335f73ffffffffffffffffffffffffffffffffffffffff168173ffffffffffffffffffffffffffffffffffffffff1603610081575f6040517f1e4fbdf70000000000000000000000000000000000000000000000000000000081526004016100789190610196565b60405180910390fd5b6100908161009660201b60201c565b506101af565b5f805f9054906101000a900473ffffffffffffffffffffffffffffffffffffffff169050815f806101000a81548173ffffffffffffffffffffffffffffffffffffffff021916908373ffffffffffffffffffffffffffffffffffffffff1602179055508173ffffffffffffffffffffffffffffffffffffffff168173ffffffffffffffffffffffffffffffffffffffff167f8be0079c531659141344cd1fd0a4f28419497f9722a3daafe3b4186f6b6457e060405160405180910390a35050565b5f73ffffffffffffffffffffffffffffffffffffffff82169050919050565b5f61018082610157565b9050919050565b61019081610176565b82525050565b5f6020820190506101a95f830184610187565b92915050565b610e95806101bc5f395ff3fe608060405234801561000f575f80fd5b506004361061007b575f3560e01c80636ca91202116100595780636ca91202146100e8578063715018a6146101185780638da5cb5b14610122578063f2fde38b146101405761007b565b8063013cf08b1461007f5780630386a016146100b05780632c0a3f89146100cc575b5f80fd5b61009960048036038101906100949190610675565b61015c565b6040516100a7929190610744565b60405180910390f35b6100ca60048036038101906100c59190610675565b61021d565b005b6100e660048036038101906100e19190610772565b610262565b005b61010260048036038101906100fd91906109be565b6102c9565b60405161010f9190610a43565b60405180910390f35b610120610352565b005b61012a610365565b6040516101379190610a9b565b60405180910390f35b61015a60048036038101906101559190610ade565b61038c565b005b6001818154811061016b575f80fd5b905f5260205f2090600402015f91509050805f01805461018a90610b36565b80601f01602080910402602001604051908101604052809291908181526020018280546101b690610b36565b80156102015780601f106101d857610100808354040283529160200191610201565b820191905f5260205f20905b8154815290600101906020018083116101e457829003601f168201915b505050505090806002015f9054906101000a900460ff16905082565b610225610410565b5f6001828154811061023a57610239610b66565b5b905f5260205f2090600402016002015f6101000a81548160ff02191690831515021790555050565b806001838154811061027757610276610b66565b5b905f5260205f2090600402016003015f3373ffffffffffffffffffffffffffffffffffffffff1673ffffffffffffffffffffffffffffffffffffffff1681526020019081526020015f20819055505050565b5f6102d2610410565b5f6001808160018154018082558091505003905f5260205f209060040201905083815f0190816103029190610d30565b508281600101908051906020019061031b92919061055f565b506001816002015f6101000a81548160ff021916908315150217905550600180805490506103499190610e2c565b91505092915050565b61035a610410565b6103635f610497565b565b5f805f9054906101000a900473ffffffffffffffffffffffffffffffffffffffff16905090565b610394610410565b5f73ffffffffffffffffffffffffffffffffffffffff168173ffffffffffffffffffffffffffffffffffffffff1603610404575f6040517f1e4fbdf70000000000000000000000000000000000000000000000000000000081526004016103fb9190610a9b565b60405180910390fd5b61040d81610497565b50565b610418610558565b73ffffffffffffffffffffffffffffffffffffffff16610436610365565b73ffffffffffffffffffffffffffffffffffffffff161461049557610459610558565b6040517f118cdaa700000000000000000000000000000000000000000000000000000000815260040161048c9190610a9b565b60405180910390fd5b565b5f805f9054906101000a900473ffffffffffffffffffffffffffffffffffffffff169050815f806101000a81548173ffffffffffffffffffffffffffffffffffffffff021916908373ffffffffffffffffffffffffffffffffffffffff1602179055508173ffffffffffffffffffffffffffffffffffffffff168173ffffffffffffffffffffffffffffffffffffffff167f8be0079c531659141344cd1fd0a4f28419497f9722a3daafe3b4186f6b6457e060405160405180910390a35050565b5f33905090565b828054828255905f5260205f209081019282156105a5579160200282015b828111156105a45782518290816105949190610d30565b509160200191906001019061057d565b5b5090506105b291906105b6565b5090565b5b808211156105d5575f81816105cc91906105d9565b506001016105b7565b5090565b5080546105e590610b36565b5f825580601f106105f65750610613565b601f0160209004905f5260205f20908101906106129190610616565b5b50565b5b8082111561062d575f815f905550600101610617565b5090565b5f604051905090565b5f80fd5b5f80fd5b5f819050919050565b61065481610642565b811461065e575f80fd5b50565b5f8135905061066f8161064b565b92915050565b5f6020828403121561068a5761068961063a565b5b5f61069784828501610661565b91505092915050565b5f81519050919050565b5f82825260208201905092915050565b5f5b838110156106d75780820151818401526020810190506106bc565b5f8484015250505050565b5f601f19601f8301169050919050565b5f6106fc826106a0565b61070681856106aa565b93506107168185602086016106ba565b61071f816106e2565b840191505092915050565b5f8115159050919050565b61073e8161072a565b82525050565b5f6040820190508181035f83015261075c81856106f2565b905061076b6020830184610735565b9392505050565b5f80604083850312156107885761078761063a565b5b5f61079585828601610661565b92505060206107a685828601610661565b9150509250929050565b5f80fd5b5f80fd5b7f4e487b71000000000000000000000000000000000000000000000000000000005f52604160045260245ffd5b6107ee826106e2565b810181811067ffffffffffffffff8211171561080d5761080c6107b8565b5b80604052505050565b5f61081f610631565b905061082b82826107e5565b919050565b5f67ffffffffffffffff82111561084a576108496107b8565b5b610853826106e2565b9050602081019050919050565b828183375f83830152505050565b5f61088061087b84610830565b610816565b90508281526020810184848401111561089c5761089b6107b4565b5b6108a7848285610860565b509392505050565b5f82601f8301126108c3576108c26107b0565b5b81356108d384826020860161086e565b91505092915050565b5f67ffffffffffffffff8211156108f6576108f56107b8565b5b602082029050602081019050919050565b5f80fd5b5f61091d610918846108dc565b610816565b905080838252602082019050602084028301858111156109405761093f610907565b5b835b8181101561098757803567ffffffffffffffff811115610965576109646107b0565b5b80860161097289826108af565b85526020850194505050602081019050610942565b5050509392505050565b5f82601f8301126109a5576109a46107b0565b5b81356109b584826020860161090b565b91505092915050565b5f80604083850312156109d4576109d361063a565b5b5f83013567ffffffffffffffff8111156109f1576109f061063e565b5b6109fd858286016108af565b925050602083013567ffffffffffffffff811115610a1e57610a1d61063e565b5b610a2a85828601610991565b9150509250929050565b610a3d81610642565b82525050565b5f602082019050610a565f830184610a34565b92915050565b5f73ffffffffffffffffffffffffffffffffffffffff82169050919050565b5f610a8582610a5c565b9050919050565b610a9581610a7b565b82525050565b5f602082019050610aae5f830184610a8c565b92915050565b610abd81610a7b565b8114610ac7575f80fd5b50565b5f81359050610ad881610ab4565b92915050565b5f60208284031215610af357610af261063a565b5b5f610b0084828501610aca565b91505092915050565b7f4e487b71000000000000000000000000000000000000000000000000000000005f52602260045260245ffd5b5f6002820490506001821680610b4d57607f821691505b602082108103610b6057610b5f610b09565b5b50919050565b7f4e487b71000000000000000000000000000000000000000000000000000000005f52603260045260245ffd5b5f819050815f5260205f209050919050565b5f6020601f8301049050919050565b5f82821b905092915050565b5f60088302610bef7fffffffffffffffffffffffffffffffffffffffffffffffffffffffffffffffff82610bb4565b610bf98683610bb4565b95508019841693508086168417925050509392505050565b5f819050919050565b5f610c34610c2f610c2a84610642565b610c11565b610642565b9050919050565b5f819050919050565b610c4d83610c1a565b610c61610c5982610c3b565b848454610bc0565b825550505050565b5f90565b610c75610c69565b610c80818484610c44565b505050565b5b81811015610ca357610c985f82610c6d565b600181019050610c86565b5050565b601f821115610ce857610cb981610b93565b610cc284610ba5565b81016020851015610cd1578190505b610ce5610cdd85610ba5565b830182610c85565b50505b505050565b5f82821c905092915050565b5f610d085f1984600802610ced565b1980831691505092915050565b5f610d208383610cf9565b9150826002028217905092915050565b610d39826106a0565b67ffffffffffffffff811115610d5257610d516107b8565b5b610d5c8254610b36565b610d67828285610ca7565b5f60209050601f831160018114610d98575f8415610d86578287015190505b610d908582610d15565b865550610df7565b601f198416610da686610b93565b5f5b82811015610dcd57848901518255600182019150602085019450602081019050610da8565b86831015610dea5784890151610de6601f891682610cf9565b8355505b6001600288020188555050505b505050505050565b7f4e487b71000000000000000000000000000000000000000000000000000000005f52601160045260245ffd5b5f610e3682610642565b9150610e4183610642565b9250828203905081811115610e5957610e58610dff565b5b9291505056fea2646970667358221220166e61bbbe6cf377018d66ea1d8e00a87050b28cdb58058e9ea7517e237e8d9264736f6c63430008150033",
  "immutableReferences": {},
  "source": "// SPDX-License-Identifier: MIT\npragma solidity ^0.8.21;\n\nimport \"@openzeppelin/contracts/access/Ownable.sol\";\nimport \"./IProposal.sol\";\n\ncontract Proposal is IProposal, Ownable {\n    struct ProposalStruct {\n        string name;\n        string[] options;\n        bool isOpen;\n        // usr #addr => his #i choice\n        mapping(address => uint) votes;\n    }\n\n    ProposalStruct[] public proposals;\n\n    constructor() Ownable(msg.sender) {}\n\n    function createProposal(\n        string memory name,\n        string[] memory options\n    ) external onlyOwner returns (uint index) {\n        ProposalStruct storage newProposal = proposals.push();\n        newProposal.name = name;\n        newProposal.options = options;\n        newProposal.isOpen = true;\n        return proposals.length - 1;\n    }\n\n    function closeProposal(uint proposalId) external override onlyOwner {\n        proposals[proposalId].isOpen = false;\n    }\n\n    function castVote(uint proposalId, uint optionId) external override {\n        proposals[proposalId].votes[msg.sender] = optionId;\n    }\n}\n",
  "sourcePath": "/home/davd/DailyVote/contracts/Proposal.sol",
  "compiler": {
    "name": "solc",
    "version": "0.8.21+commit.d9974bed.Emscripten.clang"
  },
  "schemaVersion": "3.4.16",
  "updatedAt": "2024-10-27T19:21:21.099Z",
  "devdoc": {
    "errors": {
      "OwnableInvalidOwner(address)": [
        {
          "details": "The owner is not a valid owner account. (eg. `address(0)`)"
        }
      ],
      "OwnableUnauthorizedAccount(address)": [
        {
          "details": "The caller account is not authorized to perform an operation."
        }
      ]
    },
    "kind": "dev",
    "methods": {
      "owner()": {
        "details": "Returns the address of the current owner."
      },
      "renounceOwnership()": {
        "details": "Leaves the contract without owner. It will not be possible to call `onlyOwner` functions. Can only be called by the current owner. NOTE: Renouncing ownership will leave the contract without an owner, thereby disabling any functionality that is only available to the owner."
      },
      "transferOwnership(address)": {
        "details": "Transfers ownership of the contract to a new account (`newOwner`). Can only be called by the current owner."
      }
    },
    "version": 1
  },
  "userdoc": {
    "kind": "user",
    "methods": {},
    "version": 1
  }
}